:020000040800F2
:100000007029002065010008F5040008ED040008CF
:10001000F104000881020008ED060008000000005D
:10002000000000000000000000000000A105000822
:1000300085020008000000007B0100087D01000827
:100040007F0100087F0100087F0100087F01000890
:100050007F0100087F0100087F0100087F01000880
:100060007F0100087F0100087F0100087F01000870
:100070007F0100087F0100087F0100087F01000860
:100080007F0100087F0100087F0100087F01000850
:100090007F0100087F0100087F0100087F01000840
:1000A0007F0100087F0100087F0100087F01000830
:1000B0007F0100087F0100087F0100087F01000820
:1000C0007F0100087F0100087F0100087F01000810
:1000D0007F0100087F0100087F0100087F01000800
:1000E0007F0100087F0100087F0100087F010008F0
:1000F0007F0100087F0100087F0100087F010008E0
:100100007F0100087F0100087F0100087F010008CF
:100110007F0100087F0100087F0100087F010008BF
:100120007F0100087F0100087F0100087F010008AF
:10013000DFF80CD000F074F8004800475D0F0008AD
:1001400070290020EFF30980704780F30988704719
:10015000EFF30880704780F30888704740BA704713
:10016000C0BA70470648804706480047FEE7FEE7EA
:10017000FEE7FEE7FEE7FEE7FEE7FEE7FEE7FEE757
:100180008D0600083101000840EA01039B0703D0F7
:1001900009E008C9121F08C0042AFAD203E011F8C6
:1001A000013B00F8013B521EF9D27047D2B201E088
:1001B00000F8012B491EFBD270470022F6E710B56C
:1001C00013460A4604461946FFF7F0FF204610BDC5
:1001D00010B5044604E00B7800F8013B03B1491C5C
:1001E000521EF8D2204610BD30B50446002003460A
:1001F00000E05B1C934203D2E05CCD5C401BF8D076
:1002000030BD10B54843044600F0C8FE002805D0B4
:100210000021002C02D0641E0155FAE710BD000039
:10022000064C074D06E0E06840F0010394E8070043
:1002300098471034AC42F6D3FFF77EFFA037000892
:10024000C037000810B500F001F810BD08B5012155
:10025000402000F051F90120ADF8000010208DF889
:10026000030003208DF802006946044800F0AFF84F
:100270000121024800F038F908BD000000180140D3
:1002800000BFFEE7704701B581B00AE00020009092
:1002900003E000BF0098401C00900098B0F5E15FBB
:1002A000F7D30198411E01910028EFD10CBD000049
:1002B0000149C860704700000020024030B5044684
:1002C00004254FF4302000F06FF80546042D17D1B7
:1002D0000C48006940F002000A4908610846446180
:1002E000006940F0400008614FF4302000F05CF8F5
:1002F00005460448006941F6FD710840014908615E
:10030000284630BD0020024004200B49C96801F096
:10031000010109B101200EE00749C96801F004019B
:1003200009B1022007E00449C96801F0100109B1D0
:10033000032000E0042070470020024003480069C9
:1003400040F0800001490861704700000020024031
:1003500070B504460D460426F00200F025F8064666
:10036000042E11D10948006940F0010007490861D5
:100370002580F00200F018F806460448006941F6AE
:10038000FE71084001490861304670BD00200240FE
:1003900002480349486003484860704723016745A5
:1003A00000200240AB89EFCD00B502460423FFF7E1
:1003B000ABFF034603E0FFF7A7FF0346521E012BE6
:1003C00001D1002AF7D102B90523184600BD2DE955
:1003D000F0410246002500260020002300240027CB
:1003E00091F803C00CF00F0591F803C00CF0100C4D
:1003F000BCF1000F03D091F802C04CEA050591F85A
:1004000000C0BCF1000F31D0146800202BE04FF089
:10041000010C0CFA00F3B1F800C00CEA03069E428E
:1004200020D183004FF00F0C0CFA03F7BC4305FA00
:1004300003FC4CEA040491F803C0BCF1280F06D178
:100440004FF0010C0CFA00FCC2F814C00AE091F85D
:1004500003C0BCF1480F05D14FF0010C0CFA00FCB1
:10046000C2F810C0401C0828D1D31460B1F800C0F5
:10047000BCF1FF0F34DD546800202EE000F1080CC1
:100480004FF0010808FA0CF3B1F800C00CEA0306BB
:100490009E4221D183004FF00F0C0CFA03F7BC43AE
:1004A00005FA03FC4CEA040491F803C0BCF1280FE0
:1004B00005D100F1080C08FA0CF8C2F8148091F884
:1004C00003C0BCF1480F07D100F1080C4FF0010840
:1004D00008FA0CF8C2F81080401C0828CED35460EB
:1004E000BDE8F081416170470161704700BFFEE7E0
:1004F00000BFFEE700BFFEE729B1064A926902434A
:10050000044B9A6104E0034A92698243014B9A6169
:10051000704700000010024021B1028842F0400202
:10052000028004E002884FF6BF731A4002807047D1
:100530000246002013890B400BB1012000E000208F
:1005400070470146888970478181704710B5002245
:10055000028802F441520B884C8823438C88234341
:10056000CC8823430C8923434C8923438C89234320
:10057000CC8923431A430280838B4FF2FF742340BC
:1005800083830B8A038210BD00210180418081801A
:10059000C180018141818181C18107210182704730
:1005A000704710B500F002F810BD00000CB5002037
:1005B000019000903348006840F480303149086071
:1005C00000BF3048006800F4003000900198401CE3
:1005D0000190009818B90198B0F5A06FF1D12948A1
:1005E000006800F4003010B10120009001E000200C
:1005F00000900098012843D12348006840F0100083
:10060000214908600846006820F003000860084699
:10061000006840F0020008601A48406819494860C4
:100620000846406848600846406840F4806048607A
:100630000846406820F47C1048600846406840F452
:10064000E81048600846006840F08070086000BF0D
:100650000C48006800F000700028F9D00948406894
:1006600020F00300074948600846406840F0020057
:10067000486000BF0348406800F00C000828F9D12A
:100680000CBD0000001002400020024010B51348CD
:10069000006840F0010011490860084640681049B0
:1006A00008400E494860084600680E4908400B495A
:1006B00008600846006820F480200860084640680A
:1006C00020F4FE0048604FF41F008860FFF769FFC8
:1006D0004FF000600449086010BD000000100240A7
:1006E0000000FFF8FFFFF6FE08ED00E000BFFEE7A8
:1006F00002E008C8121F08C1002AFAD170477047EB
:10070000002001E001C1121F002AFBD17047000048
:10071000F0B5ADF5006D0020012110E00DF580640D
:1007200044F820104DF8210001F080040CB11B2486
:1007300000E0002484EA41044C40E1B2401CFF2860
:10074000ECDD002001210CE0814C44F8201001F088
:1007500080040CB11B2400E0002484EA4104E1B2CF
:10076000401C0A28F0DB63247A4D2C7000247A4D5B
:1007700085F86340012023E05DF82040C4F1FF04C8
:100780000DF5806555F824100A46540044EAE21439
:10079000E2B25140540044EAE214E2B25140540043
:1007A00044EAE214E2B25140540044EAE214E2B2F4
:1007B00082F063046140674D2954674D6854401CC2
:1007C000FF28D9DD0020BCE0624C215C01F08004F0
:1007D0000CB11B2400E0002484EA4104E2B282EA66
:1007E0000104E3B282EA012484EA014484EA036456
:1007F0005A4D45F820402C4654F820404FF0FF3524
:1008000005EA0424554D55F8205044EA1564544D2A
:1008100045F820402C4654F820404FF0FF3505EABB
:1008200004244F4D55F8205044EA15644D4D45F8C9
:1008300020402C4654F820404FF0FF3505EA0424B0
:10084000484D55F8205044EA1564474D45F820407E
:10085000414C215C69B15DF821500E9C2C44FF2570
:1008600094FBF5F605FB16440DF5806555F824401C
:1008700000E0002469B15DF82160099D3544FF2640
:1008800095FBF6F706FB17550DF5806656F82550D3
:1008900000E0002584EA052569B15DF821600D9C22
:1008A0003444FF2694FBF6F706FB17440DF58066EB
:1008B00056F8244000E0002485EA044569B15DF85B
:1008C00021600B9C3444FF2694FBF6F706FB17448B
:1008D0000DF5806656F8244000E0002485EA0464A3
:1008E000224D45F820402C4654F820404FF0FF356B
:1008F00005EA04241D4D55F8205044EA15641C4DAA
:1009000045F820402C4654F820404FF0FF3505EACA
:100910000424174D55F8205044EA1564154D45F848
:1009200020402C4654F820404FF0FF3505EA0424BF
:10093000104D55F8205044EA15640F4D45F82040FD
:10094000401CFF287FF740AF0DF5006DF0BD0000A3
:1009500044230020440100204412002044020020CF
:1009600044060020440A0020440E002044130020C6
:1009700044170020441B0020441F002000B591B004
:1009800001A802F0CDFB68B10F48019000208DF85E
:100990000C008DF80F0001A802F0E0FB00F0B6FAA1
:1009A00011B000BD9DF80C00032802D100F00EF834
:1009B00008E09DF80C00042802D100F0A7FA01E03D
:1009C00000F0A4FA00BFEBE74D5241502DE9F0438F
:1009D000ADF6F40D1C220DF69801002000F0F6F99A
:1009E0009249DDF89808884211D00DF6B40002F063
:1009F00097FB00208DF8BC0804208DF8BF080DF689
:100A0000B40002F0ABFB0DF6F40DBDE8F083DDF8A9
:100A10009C4810220DF68801100200F0D7F904F569
:100A20007E6020220DF6680100F0D0F9A4F12006C6
:100A300000277F4800F03EF916E0B6F5806F02D936
:100A40004FF4806000E03046054607F580502A46A6
:100A50000DF58D6100F0BAF929460DF58D6000F0B5
:100A60003FF92F44761B00BF002EE6D10DF58960BB
:100A700000F014F920220DF668010DF58960FFF7EA
:100A8000B3FB70B10DF6B40002F04AFB00208DF804
:100A9000BC0802208DF8BF080DF6B40002F05EFB22
:100AA000B1E70DF6B40002F03BFB1C220DF24C4105
:100AB0004FF4012000F08AF95E49DDF84C048842C9
:100AC0005AD00020CDF83C04CDF84004CDF84404C1
:100AD000CDF848044FF4802600270DF23C415648DB
:100AE00000F0C8F8524800F0E5F822E0B6F5806F53
:100AF00002D94FF4806000E0304605464F4839186F
:100B00002A460DF58D60FFF73FFB2A4669460DF535
:100B10008D6000F099F807F5022010302A466946EA
:100B200000F076F92946684600F0DAF82F44761B83
:100B300000BF002EDAD10DF21C4000F0AFF81022F9
:100B40000DF23C414FF4022000F062F920220DF238
:100B50001C413B4800F05CF91C223A490DF58060CD
:100B6000FFF712FBCDF804441C220DF580614FF411
:100B7000012000F04DF900BF4FF480712F4800F0C4
:100B800070F9A4F130074FF000080DF688012A48EB
:100B900000F070F82BE0B7F5806F02D94FF4806059
:100BA00000E03846064641F2100108EB01003246EB
:100BB0000DF58D6100F00AF932461AA90DF58D6028
:100BC00000F042F800250DE01AA8415D1AAA681C41
:100BD000105C41EA0029194941444819494600F08E
:100BE0005EF9AD1CB542EFD3B044BF1B00BF002F70
:100BF000D1D104208DF8BC0810220DF50E610DF541
:100C00000D60FFF7E5FA01208DF8BF081C210DF2F9
:100C10004C40FFF7D2FA4FF4012000F07DF80DF6BA
:100C2000B40002F09BFA00BFEDE6000044485746CE
:100C30003836000850554B421836000800C00008EE
:100C400010200C005836000870B588B004460E46D7
:100C500015460020079003A8044B07AA29468DE8F3
:100C60005100034800F0D0F908B070BD2801002001
:100C70001000002070B504460D4610222946054894
:100C8000FFF782FA4FF480722146034800F02EFAF3
:100C900070BD0000280100201000002010B504469F
:100CA0002146034801F066FF014801F039FF10BDFD
:100CB0003801002070B50446084802F027F80620E5
:100CC00002F014F8054601222946044802F024F8EF
:100CD00020222146014801F089FF70BD3801002023
:100CE00070B504460D462A462146024801F0EAFF47
:100CF00070BD00003801002010B501210148FFF748
:100D0000F3FB10BD000C014010B501210148FFF7B5
:100D1000E9FB10BD000C014010B50446FFF7F4FFDD
:100D2000202002F04BFAC4F3074002F047FAC4F364
:100D3000072002F043FAE0B202F040FAFFF7DCFFCE
:100D400002F058FA10BD000000B587B0012141F251
:100D50000C00FFF7D1FBE020ADF8180018208DF84B
:100D60001B0003208DF81A0006A91548FFF72FFB7A
:100D70000120ADF8180010208DF81B0006A91148BD
:100D8000FFF725FBFFF7B8FF01A8FFF7FDFB4FF4C6
:100D90008270ADF806000820ADF810000020ADF814
:100DA0000A00ADF80C00ADF8040001A90648FFF7F1
:100DB000CDFB01210448FFF7AFFB07B000BD0000E9
:100DC00000080140000C0140003001402DE9F041D5
:100DD00004460E461746FFF797FF032002F0EEF990
:100DE000C4F3074002F0EAF9C4F3072002F0E6F981
:100DF000E0B202F0E3F9002504E0FF2002F0DEF9A2
:100E000070556D1CBD42F8D3FFF776FFBDE8F08149
:100E10002DE9F04104460E461746200B0003FFF76C
:100E20007BFF02F0E7F9FFF76FFF022002F0C6F93F
:100E3000C4F3074002F0C2F9C4F3072002F0BEF980
:100E4000E0B202F0BBF9002503E0705D02F0B6F9F4
:100E50006D1CBD42F9D3FFF74FFF02F0CBF9BDE89F
:100E6000F0812DE9F04104460D4604EB8527264626
:100E700004E0304600F006F806F50066BE42F8D3FE
:100E8000BDE8F08110B50446FFF782FA3420FFF781
:100E90000FFA2046FFF712FAFFF750FA10BD70B5AF
:100EA00004460D46FFF774FA3420FFF701FA29468D
:100EB0002046FFF74DFAFFF741FA70BD10B5002844
:100EC00021D0114B0022001F196803E0814203D892
:100ED0000A4649680029F9D152B11368841A9C4224
:100EE00004D1006818441060104602E0506000E031
:100EF000186039B102680B1A934203D10B681A4487
:100F000002604968416010BD0800002070B50F48BC
:100F100005684468B5F1005F02D30D48854200D3EF
:100F200070BDB4F1006F02D30A48844200D3F7E7E2
:100F300004F0010000B9F3E772B6044806490860FE
:100F40002846FFF708F9A04700BFFEE700C00008E9
:100F5000000001200000080808ED00E0FFF772F92A
:100F6000FFF7F2FE002410E001210B48FFF7BAFA68
:100F70004FF4FA70FFF787F901210748FFF7B4FA39
:100F80004FF4FA70FFF77FF9641C052CECD3FFF7E0
:100F9000F5FC00BFFEE7000000180140F0B50B3083
:100FA000154D20F007010024144A0FE003688B421E
:100FB0000BD38B4205D95E1A43184768C3E9006713
:100FC00000E04368136002C004E0021D10680028BE
:100FD000ECD12046002802D1286808B10020F0BDDD
:100FE000064A07481060074A121A22F00702C0E9B1
:100FF000002401202860D7E70C0000200800002012
:1010000074230020702500202DE9FF4F83B088460F
:1010100017461D46DDE911ABDDF840906FF06D001D
:10102000019000BF00BF00BF00BF00BF00BF00BFF6
:1010300000BF00BF00BF00BF00BF3C680F2C04D939
:101040006FF0200007B0BDE8F08F24E0BCB94B463C
:101050002A460121039800F028F80190019800B178
:1010600021E0102608E0701E285C401CC1B2701EF2
:10107000295401B102E0761E002EF4DC00BF1AF8FC
:10108000010B029019F80410029848400BF8010B6C
:10109000601C00F00F04B8F10000A8F10108D5D1E0
:1010A0003C60019000BF0198CCE72DE9F041074674
:1010B0000C4615461E4600BF00BF00BF00BF00BF64
:1010C00000BF00BF00BF012C06D13246294638467A
:1010D00000F066FBBDE8F08132462946384600F054
:1010E00019F9F7E701460020704700002DE9F041AB
:1010F00006460F46904600BF00BF00BF00BFB8F1D4
:10110000800F06D0B8F1C00F06D0B8F5807F09D1A6
:1011100005E00A20306009E00C20306006E00E2077
:10112000306003E06FF01F00BDE8F08100BF76483B
:10113000006820B9FFF7ECFA01207349086006F156
:101140000800FFF7CFFF06F1080101EB800474608F
:10115000002516E017F82500012101EB8501795CD7
:1011600040EA0120022101EB8501795C40EA01405F
:10117000032101EB8501795C40EA016044F8250018
:101180006D1CB5EB581FE5D330680A2804D00C2835
:1011900030D00E282DD163E0002528E05B4951F8BE
:1011A000251020684840A189C1F30721584A515CA5
:1011B0004840E168C1F30741515C80EA0121E068E1
:1011C000000E105C81EA0040217B515C80EA0160E6
:1011D000206121696068484060616169A068484099
:1011E000A061A169E0684840E0616D1C10340A2DDF
:1011F000D4D386E0002530E0444951F8251020681A
:101200004840A18AC1F30721414A515C48406169C5
:10121000C1F30741515C80EA01216069000E105C56
:1012200081EA0040217D515C80EA0160A061A169F2
:1012300060684840E061E169A06848402062216A36
:10124000E06848406062616A20694840A062A16A23
:1012500060694840E0626D1C1834082DCCD350E022
:1012600000254BE0294951F8251020684840A18B02
:10127000C1F30721264A515C4840E169C1F30741A7
:10128000515C80EA0121E069000E105C81EA0040B7
:10129000217F515C80EA01602062216A60684840D9
:1012A0006062616AA0684840A062A16AE068484044
:1012B000E06294F82C10515C20694840A18DC1F384
:1012C0000721515C80EA0120E16AC1F30741515CCA
:1012D00080EA0141E06A000E105C81EA0060206350
:1012E000216B606948406063616BA0694840A063FE
:1012F000A16BE0694840E0636D1C2034072DB1D339
:1013000000BF00BF00200FE70000002044230020A2
:10131000440100202DE9F04188B007460D461646ED
:101320007C682878697840EA0120A97840EA014081
:10133000E97840EA0160009001CC009948400090B3
:101340002879697940EA0120A97940EA0140E979E0
:1013500040EA0160019001CC019948400190287A4F
:10136000697A40EA0120A97A40EA0140E97A40EA34
:101370000160029001CC029948400290287B697B71
:1013800040EA0120A97B40EA0140E97B40EA016094
:10139000039001CC03994840039001213868C1EBC8
:1013A0006008E8E000BF01CC0099C9B2F74A52F8E2
:1013B000211048400399C1F30721F54A52F8211042
:1013C00048400299C1F30741F24A52F821104840BF
:1013D0000199090EF04A52F821104840049001CCBE
:1013E0000199C9B2E94A52F8211048400099C1F365
:1013F0000721E74A52F8211048400399C1F30741F9
:10140000E44A52F8211048400299090EE24A52F883
:1014100021104840059001CC0299C9B2DB4A52F82C
:10142000211048400199C1F30721D94A52F82110EF
:1014300048400099C1F30741D64A52F8211048406C
:101440000399090ED44A52F821104840069001CC65
:101450000399C9B2CD4A52F8211048400299C1F30C
:101460000721CB4A52F8211048400199C1F30741A6
:10147000C84A52F8211048400099090EC64A52F84D
:1014800021104840079000BF00BF01CC0499C9B2A9
:10149000BE4A52F821104840BDF81C10C1F3072184
:1014A000BB4A52F8211048400699C1F30741B94A96
:1014B00052F8211048400599090EB74A52F82110F8
:1014C0004840009001CC9DF81410B04A52F8211009
:1014D00048400499C1F30721AD4A52F82110484011
:1014E0000799C1F30741AB4A52F8211048400699C9
:1014F000090EA94A52F821104840019001CC9DF8EC
:101500001810A24A52F821104840BDF81410C1F337
:1015100007219F4A52F8211048400499C1F307411E
:101520009C4A52F8211048400799090E9A4A52F8ED
:1015300021104840029001CC9DF81C10934A52F8AB
:1015400021104840BDF81810C1F30721904A52F805
:10155000211048400599C1F307418E4A52F82110E5
:1015600048400499090E8C4A52F8211048400390D3
:1015700000BFA8F10108B8F1000F3FF713AF00BF9B
:1015800001CC0099C9B2814A52F821104840039910
:10159000C1F307217E4A52F8211048400299C1F355
:1015A00007417C4A52F8211048400199090E7A4AB5
:1015B00052F821104840049001CC0199C9B2734AF5
:1015C00052F8211048400099C1F30721704A52F89F
:1015D000211048400399C1F307416E4A52F8211087
:1015E00048400299090E6C4A52F821104840059073
:1015F00001CC0299C9B2654A52F8211048400199BC
:10160000C1F30721624A52F8211048400099C1F302
:101610000741604A52F8211048400399090E5E4A7A
:1016200052F821104840069001CC0399C9B2574A9C
:1016300052F8211048400299C1F30721544A52F848
:10164000211048400199C1F30741524A52F8211034
:1016500048400099090E504A52F82110484007901E
:1016600000BF01CC0499C9B24C4A515C4840BDF856
:101670001C10C1F30721515C80EA01210698C0F3D8
:101680000740105C81EA00410598000E105C81EA79
:101690000060009001CC9DF81410515C4840049902
:1016A000C1F30721515C80EA01210798C0F307408C
:1016B000105C81EA00410698000E105C81EA00602F
:1016C000019001CC9DF81810515C4840BDF81410F1
:1016D000C1F30721515C80EA01200499C1F307415D
:1016E000515C80EA01410798000E105C81EA0060BD
:1016F000029001CC9DF81C10515C4840BDF81810B8
:10170000C1F30721515C80EA01210598C0F307402D
:10171000105C81EA00410498000E105C81EA0060D0
:101720000390009830700098000A70700098000CC8
:10173000B0700098000EF070019830710198000AA6
:1017400070710198000CB0710198000EF071029850
:1017500030720298000A70720298000CB0720298FF
:10176000000EF072039830730398000A70730398A8
:10177000000CB0730398000EF0732021684601F04E
:101780003BFB002008B0BDE8F081000044130020BE
:1017900044170020441B0020441F00204412002056
:1017A0002DE9F04188B007460D4616467C6828783A
:1017B000697840EA0120A97840EA0140E97840EAE6
:1017C0000160009001CC0099484000902879697927
:1017D00040EA0120A97940EA0140E97940EA016044
:1017E000019001CC019948400190287A697A40EA39
:1017F0000120A97A40EA0140E97A40EA01600290BA
:1018000001CC029948400290287B697B40EA012084
:10181000A97B40EA0140E97B40EA0160039001CCEA
:1018200003994840039001213868C1EB6008E8E063
:1018300000BF01CC0099C9B2F74A52F821104840C4
:101840000199C1F30721F54A52F821104840029945
:10185000C1F30741F24A52F8211048400399090E9A
:10186000F04A52F821104840049001CC0199C9B2C5
:10187000E94A52F8211048400299C1F30721E74A8A
:1018800052F8211048400399C1F30741E44A52F845
:10189000211048400099090EE24A52F821104840B0
:1018A000059001CC0299C9B2DB4A52F82110484098
:1018B0000399C1F30721D94A52F8211048400099F1
:1018C000C1F30741D64A52F8211048400199090E48
:1018D000D44A52F821104840069001CC0399C9B26D
:1018E000CD4A52F8211048400099C1F30721CB4A54
:1018F00052F8211048400199C1F30741C84A52F8F3
:10190000211048400299090EC64A52F82110484059
:10191000079000BF00BF01CC0499C9B2BE4A52F87B
:1019200021104840BDF81410C1F30721BB4A52F8FA
:10193000211048400699C1F30741B94A52F82110D5
:1019400048400799090EB74A52F8211048400090C4
:1019500001CC9DF81410B04A52F821104840BDF84F
:101960001810C1F30721AD4A52F8211048400799D9
:10197000C1F30741AA4A52F8211048400499090EC0
:10198000A84A52F821104840019001CC9DF8181047
:10199000A14A52F821104840BDF81C10C1F307219C
:1019A0009E4A52F8211048400499C1F307419C4ACD
:1019B00052F8211048400599090E9A4A52F8211010
:1019C0004840029001CC9DF81C10934A52F8211017
:1019D00048400499C1F30721904A52F82110484029
:1019E0000599C1F307418E4A52F8211048400699E3
:1019F000090E8C4A52F821104840039000BFA8F10C
:101A00000108B8F1000F3FF713AF00BF01CC0099F8
:101A1000C9B2814A52F8211048400199C1F3072107
:101A20007E4A52F8211048400299C1F307417C4A8E
:101A300052F8211048400399090E7A4A52F82110B1
:101A40004840049001CC0199C9B2734A52F8211060
:101A500048400299C1F30721704A52F821104840CA
:101A60000399C1F307416E4A52F82110484000998A
:101A7000090E6C4A52F821104840059001CC029999
:101A8000C9B2654A52F8211048400399C1F30721B1
:101A9000624A52F8211048400099C1F30741604A58
:101AA00052F8211048400199090E5E4A52F821105F
:101AB0004840069001CC0399C9B2574A52F8211008
:101AC00048400099C1F30721544A52F82110484078
:101AD0000199C1F30741524A52F821104840029936
:101AE000090E504A52F821104840079000BF01CC1F
:101AF0000499C9B24C4A515C4840BDF81410C1F376
:101B00000721515C80EA01210698C0F30740105C70
:101B100081EA00410798000E105C81EA00600090A5
:101B200001CC9DF81410515C4840BDF81810C1F369
:101B30000721515C80EA01210798C0F30740105C3F
:101B400081EA00410498000E105C81EA0060019077
:101B500001CC9DF81810515C4840BDF81C10C1F331
:101B60000721515C80EA01200499C1F30741515CCF
:101B700080EA01410598000E105C81EA0060029045
:101B800001CC9DF81C10515C48400499C1F3072119
:101B9000515C80EA01210598C0F30740105C81EA9E
:101BA00000410698000E105C81EA006003900098E6
:101BB00030700098000A70700098000CB0700098A7
:101BC000000EF070019830710198000A7071019850
:101BD000000CB0710198000EF071029830720298FA
:101BE000000A70720298000CB0720298000EF07237
:101BF000039830730398000A70730398000CB07355
:101C00000398000EF0732021684601F0F5F80020DB
:101C100008B0BDE8F0810000440200204406002026
:101C2000440A0020440E002044010020F0B5CBB04F
:101C300006460D4600BF00BF00BF00BF002407E0FE
:101C400006F1080050F8241043A840F82410641C42
:101C5000082CF5D3002414E015F824000106A00098
:101C6000401C285C41EA0041A000801C285C41EA3D
:101C70000021A000C01C285C084303A941F82400EF
:101C8000641C102CE8D3002471E200BF479881093E
:101C90009DF81C0141EA80604799CA0ABDF81C11F1
:101CA00042EA4151484047994A0E42EAC111484030
:101CB0004A99421848994998484047990840499993
:101CC00048401044FE4951F82410014403A850F83C
:101CD00024000844019043988008439940EA8170A9
:101CE000490B439A41EAC2414840910D41EA8221A1
:101CF00080EA0102449943980840449B4399194360
:101D0000459B1940084310440290019946980144AC
:101D10004691DDE9010101444A9100BF00BF4698A8
:101D200081099DF8180141EA80604699CA0ABDF808
:101D3000181142EA4151484046994A0E42EAC111FF
:101D40004840499942184799489848404699084060
:101D5000489948401118DA4A601C52F820000A18C5
:101D600003A8611C50F82100104401904A98810892
:101D70009DF8280141EA80704A994A0BBDF8281164
:101D800042EAC14148404A998A0D42EA812180EAEB
:101D9000010243994A980840439B4A991943449B3E
:101DA0001940084310440290019945980144459117
:101DB000DDE901010144499100BF00BF4598810957
:101DC0009DF8140141EA80604599CA0ABDF81411D2
:101DD00042EA4151484045994A0E42EAC111484001
:101DE000489942184799469848404599084047996C
:101DF00048401118B24AA01C52F820000A1803A843
:101E0000A11C50F8210010440190499881089DF8C8
:101E1000240141EA807049994A0BBDF8241142EA35
:101E2000C141484049998A0D42EA812180EA010274
:101E30004A99499808404A9B49991943439B19403C
:101E40000843104402900199449801444491DDE90B
:101E500001010144489100BF00BF449881099DF8E9
:101E6000100141EA80604499CA0ABDF8101142EAA3
:101E70004151484044994A0E42EAC11148404799AD
:101E80004218469945984840449908404699484028
:101E900011188B4AE01C52F820000A1803A8E11C14
:101EA00050F8210010440190489881089DF82001C5
:101EB00041EA807048994A0BBDF8201142EAC141BD
:101EC000484048998A0D42EA812180EA01024999F5
:101ED00048980840499B489919434A9B1940084330
:101EE000104402900199439808444390DDE90101B0
:101EF0000144479100BF00BF43988009439940EADD
:101F00008160C90A439A41EA42514840510E41EA70
:101F1000C21148404699421845994498484043990F
:101F20000840459948401118654A201D52F8200084
:101F30000A1803A8211D50F8210010440190479869
:101F400081089DF81C0141EA807047994A0BBDF851
:101F50001C1142EAC141484047998A0D42EA812159
:101F600080EA0102489947980840489B47991943DD
:101F7000499B194008431044029001994A98014432
:101F80004A91DDE901010144469100BF00BF4A9832
:101F900081099DF8280141EA80604A99CA0ABDF882
:101FA000281142EA415148404A994A0E42EAC11179
:101FB0004840459942184399449848404A990840F6
:101FC0004499484011183E4A601D52F820000A18F2
:101FD00003A8611D50F82100104401904698810823
:101FE0009DF8180141EA807046994A0BBDF8181116
:101FF00042EAC141484046998A0D42EA812180EA7D
:102000000102479946980840479B46991943489BC7
:10201000194008431044029001994998014449919C
:10202000DDE901010144459100BF00BF49988109E4
:102030009DF8240141EA80614998C20ABDF8240153
:1020400042EA4050484049994A0E42EAC11148408C
:102050004499421843994A984840499908404399FD
:1020600048401118164AA01D52F820000A1803A86B
:10207000A11D50F8210010440190459881089DF859
:10208000140141EA807045994A0BBDF8141142EAE7
:10209000C141484045998A0D42EA812180EA010206
:1020A000469945980840469B45991943479B1940D6
:1020B000084310440290019948980144489101E076
:1020C00074360008DDE901010144449100BF00BFFE
:1020D000489881099DF8200141EA80604899CA0A20
:1020E000BDF8201142EA4151484048994A0E42EA5F
:1020F000C1114840439942184A9949984840489923
:1021000008404A9948401118FE4AE01D52F8200044
:102110000A1803A8E11D50F82100104401904498CA
:1021200081089DF8100141EA807044994A0BBDF87E
:10213000101142EAC141484044998A0D42EA812186
:1021400080EA0102459944980840459B4499194307
:10215000469B194008431044029001994798014456
:102160004791DDE901010844439000BF0834102C79
:10217000FFF48BAD1024FDE300BFA01E03A951F8AE
:102180002000420CA11E03A850F8210042EAC030F2
:1021900003AA52F82110CB0CA11E52F8211043EAD9
:1021A00041314840A11E52F8211080EA9122E11FDE
:1021B00003A850F821001044083903AA52F821104E
:1021C000CB09A4F10F0112F8211043EA4161A4F1F7
:1021D0000F0203AB53F82220970CA4F10F0253F81F
:1021E000222047EA82325140A4F10F0253F8222004
:1021F00081EAD2014218A4F1100103A850F821008D
:10220000024403A840F82420479881099DF81C0146
:1022100041EA80604799CB0ABDF81C1143EA41515D
:10222000484047994B0E43EAC11148404A99431828
:102230004999489848404799084049994840184466
:10224000B04951F824100844104401904398800884
:10225000439940EA8170490B439A41EAC2414840A0
:10226000910D41EA822180EA010244994398084095
:10227000449B43991943459B1940084310440290DD
:102280000199469801444691DDE9010101444A91D2
:1022900000BF00BF601E03A951F82000420C601E61
:1022A00051F8200042EAC031601E03AA52F8200013
:1022B000C30C601E52F8200043EA40304140601ECB
:1022C00052F8200081EA9022A01F03A951F82000B3
:1022D0001118A4F10E0003AA52F82000C309A4F1BA
:1022E0000E0012F8200043EA4062A4F10E0003AB96
:1022F00053F82000870CA4F10E0053F8200047EAA1
:1023000080304240A4F10E0053F8200082EAD00051
:102310000A18A4F10F0003A951F82000024403A8F1
:10232000611C40F82120469881099DF8180141EA76
:1023300080604699CB0ABDF8181143EA41514840E4
:1023400046994B0E43EAC1114840499943184899B0
:102350004798484046990840489948401918694BA1
:10236000601C53F820000844104401904A988108EA
:102370009DF8280141EA80704A994A0BBDF828115E
:1023800042EAC14148404A998A0D42EA812180EAE5
:10239000010243994A980840439B4A991943449B38
:1023A0001940084310440290019945980144459111
:1023B000DDE901010144499100BF00BF03A951F8C3
:1023C0002400420C03A850F8240042EAC03103AABA
:1023D00052F82400C30C52F8240043EA4030414034
:1023E00052F8240081EA9022601F03A951F82000CE
:1023F0001118A4F10D0003AA52F82000C309A4F19A
:102400000D0012F8200043EA4062A4F10D0003AB76
:1024100053F82000870CA4F10D0053F8200047EA80
:1024200080304240A4F10D0053F8200082EAD00031
:102430000A18A4F10E0003A951F82000024403A8D1
:10244000A11C40F82120459881099DF8140141EA1A
:1024500080604599CB0ABDF8141143EA41514840C8
:1024600045994B0E43EAC111484048994318479992
:102470004698484045990840479948401918214BCB
:10248000A01C53F82000084410440190499881088A
:102490009DF8240141EA807049994A0BBDF8241146
:1024A00042EAC141484049998A0D42EA812180EAC5
:1024B00001024A99499808404A9B49991943439B0C
:1024C00019400843104402900199449801444491F2
:1024D000DDE901010144489100BF00BF601C03A970
:1024E00051F82000420C601C51F8200042EAC03133
:1024F000601C03AA52F82000C30C601C52F8200094
:1025000002E000007436000843EA40304140601C9D
:1025100052F8200081EA9022201F03A951F82000E0
:102520001118A4F10C0003AA52F82000C309A4F169
:102530000C0012F8200043EA4062A4F10C0003AB47
:1025400053F82000870CA4F10C0053F8200047EA50
:1025500080304240A4F10C0053F8200082EAD00001
:102560000A18A4F10D0003A951F82000024403A8A1
:10257000E11C40F82120449881099DF8100141EAAE
:1025800080604499CB0ABDF8101143EA415148409C
:1025900044994B0E43EAC111484047994318459965
:1025A0004698484044990840469948401918FE4BBF
:1025B000E01C53F82000084410440190489881081A
:1025C0009DF8200141EA807048994A0BBDF820111E
:1025D00042EAC141484048998A0D42EA812180EA95
:1025E0000102499948980840499B489919434A9BD8
:1025F00019400843104402900199439808444390BD
:10260000DDE901010144479100BF00BFA01C03A9FF
:1026100051F82000420CA01C51F8200042EAC031C1
:10262000A01C03AA52F82000C30CA01C52F82000E2
:1026300043EA40304140A01C52F8200081EA902239
:10264000E11E03A850F821001118A4F10B0003AA01
:1026500052F82000C309A4F10B0012F8200043EA4D
:102660004062A4F10B0003AB53F82000870CA4F1E7
:102670000B0053F8200047EA80304240A4F10B00E1
:1026800053F8200082EAD0000A18A4F10C0003A934
:1026900051F82000024403A8211D40F8212043984E
:1026A0008009439940EA8160C90A439B41EA43514A
:1026B0004840590E41EAC31148404699431845998C
:1026C0004498484043990840459948401918B64BEA
:1026D000201D53F8200008441044019047988108B9
:1026E0009DF81C0141EA807047994A0BBDF81C1106
:1026F00042EAC141484047998A0D42EA812180EA75
:102700000102489947980840489B47991943499BBB
:10271000194008431044029001994A9801444A9193
:10272000DDE901010144469100BF00BFE01C03A99F
:1027300051F82000420CE11C03A850F8210042EAA5
:10274000C031E01C03AA52F82000C30CE01C52F870
:10275000200043EA40304140E01C52F8200081EA6A
:102760009022A01E03A951F820001118A4F10A001C
:1027700003AA52F82000C309A4F10A0012F82000AD
:1027800043EA4062A4F10A0003AB53F82000870C2F
:10279000A4F10A0053F8200047EA80304240A4F137
:1027A0000A0053F8200082EAD0000A18A4F10B00B6
:1027B00003A951F82000024403A8611D40F821201C
:1027C0004A9881099DF8280141EA80604A99CB0A1C
:1027D000BDF8281143EA415148404A994B0E43EA5B
:1027E000C1114840459943184399449848404A9933
:1027F00008404499484019186B4B601D53F820005D
:10280000084410440190469881089DF8180141EA57
:10281000807046994A0BBDF8181142EAC141484000
:1028200046998A0D42EA812180EA01024799469839
:102830000840479B46991943489B19400843104458
:1028400002900199499801444991DDE9010101444F
:10285000459100BF00BF201D03A951F82000420C84
:10286000201D51F8200042EAC031201D03AA52F871
:102870002000C30C201D52F8200043EA40304140A4
:10288000201D52F8200081EA9022601E03A951F811
:1028900020001118A4F1090003AA52F82000C3096E
:1028A000A4F1090012F8200043EA4062A4F10900F3
:1028B00003AB53F82000870CA4F1090053F8200063
:1028C00047EA80304240A4F1090053F8200082EA30
:1028D000D0000A18A4F10A0003A951F8200002440C
:1028E00003A8A11D40F82120499881099DF82401E1
:1028F00041EA80614998C30ABDF8240143EA405087
:10290000484049994B0E43EAC11148404499431845
:1029100043994A98484049990840439948401918B2
:10292000214BA01D53F82000084410440190459805
:1029300081089DF8140141EA807045994A0BBDF861
:10294000141142EAC141484045998A0D42EA812169
:1029500080EA0102469945980840469B45991943EB
:10296000479B19400843104402900199489801443C
:10297000489100E09BE0DDE901010144449100BF82
:1029800000BF601D03A951F82000420C601D51F8E2
:10299000200042EAC031601D03AA52F82000C30C97
:1029A000601D52F8200001E07436000843EA403010
:1029B0004140601D52F8200081EA902203A951F89D
:1029C00024001118A4F1080003AA52F82000C3093A
:1029D000A4F1080012F8200043EA4062A4F10800C4
:1029E00003AB53F82000870CA4F1080053F8200033
:1029F00047EA80304240A4F1080053F8200082EA00
:102A0000D0000A18A4F1090003A951F820000244DB
:102A100003A8E11D40F82120489881099DF8200174
:102A200041EA80604899CB0ABDF8201143EA415140
:102A3000484048994B0E43EAC11148404399431816
:102A400049994A984840489908404A994840191875
:102A5000254BE01D53F82000084410440190449891
:102A600081089DF8100141EA807044994A0BBDF835
:102A7000101142EAC141484044998A0D42EA81213D
:102A800080EA0102459944980840459B44991943BE
:102A9000469B19400843104402900199479801440D
:102AA0004791DDE901010844439000BF0834402C00
:102AB000FFF462AB00240CE006F1080050F824108B
:102AC00043A850F82400014406F1080040F82410FF
:102AD000641C082CF0D34FF4947101A800F08CF919
:102AE00000204BB0F0BD00007436000870B50446FD
:102AF0000D460CB1206808B9084870BD20680079FF
:102B0000052802D0062806D100E000BF29466068EB
:102B100000F082F9F1E70148EFE7000000AFFFFFA6
:102B200010B504460CB1206800B910BD606880B1D2
:102B300020680079052802D0062805D100E000BFF2
:102B4000606800F026FA00E000BF00BF6068FEF792
:102B5000B5F9A06840B1226892795100A06800F0F0
:102B60004BF9A068FEF7AAF90C21204600F044F9C1
:102B700000BFDAE7F0B589B004460E466FF06D0786
:102B80001CB1206808B1A06810B9174809B0F0BDA1
:102B900021688979A068451801A92046FFF7A6FF9A
:102BA000071E01D03846F1E7204600F0EDF8071E79
:102BB00001D03846EAE7206882792946204600F0AD
:102BC000FFF8071E01D03846E0E72068427901A9E6
:102BD000204600F0F5F8071E01D03846D6E731460A
:102BE0002046FFF783FFD1E700AFFFFF2DE9F04755
:102BF00088B00446884691466FF06D0A1CB1206883
:102C000008B1A06818B92E4808B0BDE8F087206860
:102C1000807948451BD2204600F0B6F8B0F1000A92
:102C200000D046E04A464146204600F0C9F8B0F1DF
:102C3000000A00D03DE069462046FFF757FFB0F19B
:102C4000000A00D035E0206890F80590E846A668B4
:102C500021688979A0684718206881793622304632
:102C6000FDF7A4FA206881795C223846FDF79EFAC8
:102C700000250AE0705D18F8051048407055785D31
:102C800018F80510484078556D1C4D45F2D3204684
:102C900000F07AF8B0F1000A00D00AE020688279EA
:102CA0003146204600F08CF8B0F1000A00D000E078
:102CB00000BF2021684600F09FF85046A4E70000BE
:102CC00000AFFFFF70B504460D4616461CB12068E4
:102CD00008B1A06808B9044870BD324629462046AC
:102CE00000F06EF8F8E7000000AFFFFF014605298D
:102CF00002D0062904D101E0024870470248FCE7EF
:102D00000020FAE7743700087C37000800210160D2
:102D1000416081607047000070B504460D4616465C
:102D200005B10CB9174870BD256000206060A06037
:102D30002879052802D0062811D100E000BF00BF85
:102D40006C210120FDF75DFA6060606810B90D48E4
:102D50008038E8E7606800F026F900BF01E0094824
:102D6000E1E700BF66B1A9790220FDF74AFAA06049
:102D7000A06828B92046FFF7D3FE02488038D2E782
:102D80000020D0E700AFFFFF10B504460CB120686B
:102D900008B90A4810BD20680079052802D0062825
:102DA0000AD104E00121606800F006F9F2E7002191
:102DB000606800F001F9EDE70048EBE700AFFFFFC6
:102DC00070B504460D4616460CB1206808B909488E
:102DD00070BD20680079052802D0062807D100E0E0
:102DE00000BF32462946606800F034F9F0E7014838
:102DF000EEE7000000AFFFFF70B505460C4600BFD0
:102E000000BF2CB1224600212846024B1B68984780
:102E100070BD0000040000202DE9F04704460D4677
:102E20006FF06D0900BF00BF00BF00BF207800F049
:102E30003F0680223046761C04F128010A54382EC1
:102E400007D8C6F1380104F128029019FDF7B5F949
:102E500016E0C6F1400104F128029019FDF7ADF922
:102E600004F128012046FEF7E1FEB0F1000902D08E
:102E70004846BDE8F087382104F12800FDF79DF9A8
:102E80002068400F616840EAC10720684FEAC00827
:102E9000380E84F86000390C84F86110390A84F81F
:102EA000621084F863704FEA186084F864004FEA97
:102EB000184184F865104FEA182184F8661084F8E8
:102EC000678004F128012046FEF7B0FEB0F100094A
:102ED00001D04846CDE7A068000E2870A068000C1D
:102EE00068702089000AA870207AE870E068000EF7
:102EF0002871E068000C6871A089000AA871207B25
:102F0000E8712069000E28722069000C6872208A1E
:102F1000000AA872207CE8726069000E287360695C
:102F2000000C6873A08A000AA873207DE873A0696A
:102F3000000E2874A069000C6874208B000AA87425
:102F4000207EE874E069000E2875E069000C687561
:102F5000A08B000AA875207FE875206A000E2876ED
:102F6000206A000C6876208C000AA8762020005D7C
:102F7000E876A06E58B9606A000E2877606A000C87
:102F80006877A08C000AA8772420005DE8770020ED
:102F90006FE710B5044604B910BD6C212046FFF759
:102FA0002BFF00BFF8E710B5044600BF00BF6C213F
:102FB0002046FDF702F910BD024600BF00BF00BF6A
:102FC00000BF00201060506081B912489060124B21
:102FD000D360124B1361124B5361124B9361124B2E
:102FE000D361124B1362124B53620FE01148906091
:102FF000114BD360114B1361114B5361114B936112
:10300000114BD361114B1362114B53629166002037
:103010007047000067E6096A85AE67BB72F36E3CD5
:103020003AF54FA57F520E518C68059BABD9831F93
:1030300019CDE05BD89E05C107D57C3617DD703011
:1030400039590EF7310BC0FF11155868A78FF96475
:10305000A44FFABE2DE9F0470446884615466FF0A6
:103060006D0900BF00BF00BF00BF15B90020BDE85B
:10307000F087207800F03F07C7F140062068284419
:103080002060206820602068A84202D26068401C4E
:103090006060AFB1B54213D304F12801C8193246BC
:1030A0004146FDF771F804F128012046FEF7BEFD08
:1030B000B0F1000901D04846D9E7B044AD1B002764
:1030C0000BE041462046FEF7B1FDB0F1000901D00A
:1030D0004846CCE708F14008403D402DF1D235B1DB
:1030E00004F12801C8192A464146FDF74DF8002091
:1030F000BDE7000030B502464FF0FF311346002017
:1031000008E01C5C4C40E4B2044D55F8244084EACD
:103110001121401C3C28F4DBC84330BD18320008A4
:1031200070B5044640220B492046FDF72DF80A49A8
:103130002068884202D04FF0FF3070BD2046FFF774
:10314000D9FF0546E06BA84202D06FF00100F4E71A
:103150000020F2E700C004084D52415070B5A0B005
:1031600005464022294610A8FDF70EF810A8FFF7E3
:10317000C1FF1F901048FDF785FE10AE002407E048
:1031800036F814100C4A02EB4400FDF788FE641C6C
:10319000202CF5DB402208496846FCF7F5FF402269
:1031A000694610A8FDF720F818B14FF0FF3020B0A5
:1031B00070BD0020FBE7000000C0040810B5044605
:1031C00000BF02210A48FDF7B3F90028F9D02146D3
:1031D0000748FDF7B9F900BF01210548FDF7A8F937
:1031E0000028F9D00248FDF7ACF9C0B210BD0000CC
:1031F0000030014010B5FDF787FD0520FFF7DEFF29
:1032000000BFFF20FFF7DAFF00F001000028F8D12F
:10321000FDF772FD10BD000000000000B71DC104E5
:103220006E3B8209D926430DDC7604136B6BC51700
:10323000B24D861A0550471EB8ED08260FF0C92278
:10324000D6D68A2F61CB4B2B649B0C35D386CD31E0
:103250000AA08E3CBDBD4F3870DB114CC7C6D048AC
:103260001EE09345A9FD5241ACAD155F1BB0D45B88
:10327000C2969756758B5652C836196A7F2BD86EF0
:10328000A60D9B6311105A6714401D79A35DDC7D68
:103290007A7B9F70CD665E74E0B6239857ABE29C54
:1032A0008E8DA191399060953CC0278B8BDDE68F88
:1032B00052FBA582E5E66486585B2BBEEF46EABA70
:1032C0003660A9B7817D68B3842D2FAD3330EEA968
:1032D000EA16ADA45D0B6CA0906D32D42770F3D0CC
:1032E000FE56B0DD494B71D94C1B36C7FB06F7C300
:1032F0002220B4CE953D75CA28803AF29F9DFBF6F8
:1033000046BBB8FBF1A679FFF4F63EE143EBFFE5DF
:103310009ACDBCE82DD07DEC77708634C06D4730F7
:10332000194B043DAE56C539AB0682271C1B4323FF
:10333000C53D002E7220C12ACF9D8E1278804F1677
:10334000A1A60C1B16BBCD1F13EB8A01A4F64B05DF
:103350007DD00808CACDC90C07AB9778B0B6567CAB
:1033600069901571DE8DD475DBDD936B6CC0526F87
:10337000B5E6116202FBD066BF469F5E085B5E5AEF
:10338000D17D1D576660DC5363309B4DD42D5A4967
:103390000D0B1944BA16D84097C6A5AC20DB64A81B
:1033A000F9FD27A54EE0E6A14BB0A1BFFCAD60BB87
:1033B000258B23B69296E2B22F2BAD8A98366C8E6F
:1033C00041102F83F60DEE87F35DA9994440689D67
:1033D0009D662B902A7BEA94E71DB4E0500075E4CB
:1033E000892636E93E3BF7ED3B6BB0F38C7671F7FF
:1033F000555032FAE24DF3FE5FF0BCC6E8ED7DC2F7
:1034000031CB3ECF86D6FFCB8386B8D5349B79D1DE
:10341000EDBD3ADC5AA0FBD8EEE00C6959FDCD6D4C
:1034200080DB8E6037C64F643296087A858BC97E02
:103430005CAD8A73EBB04B77560D044FE110C54B72
:10344000383686468F2B47428A7B005C3D66C158E2
:10345000E4408255535D43519E3B1D252926DC21C6
:10346000F0009F2C471D5E28424D1936F550D8328A
:103470002C769B3F9B6B5A3B26D6150391CBD407EA
:1034800048ED970AFFF0560EFAA011104DBDD0146A
:10349000949B93192386521D0E562FF1B94BEEF5CE
:1034A000606DADF8D7706CFCD2202BE2653DEAE68A
:1034B000BC1BA9EB0B0668EFB6BB27D701A6E6D36A
:1034C000D880A5DE6F9D64DA6ACD23C4DDD0E2C06A
:1034D00004F6A1CDB3EB60C97E8D3EBDC990FFB9A6
:1034E00010B6BCB4A7AB7DB0A2FB3AAE15E6FBAA02
:1034F000CCC0B8A77BDD79A3C660369B717DF79FF2
:10350000A85BB4921F4675961A163288AD0BF38CE1
:10351000742DB081C330718599908A5D2E8D4B5981
:10352000F7AB085440B6C95045E68E4EF2FB4F4A01
:103530002BDD0C479CC0CD43217D827B9660437F71
:103540004F460072F85BC176FD0B86684A16476CE1
:1035500093300461242DC565E94B9B115E565A15C5
:1035600087701918306DD81C353D9F0282205E0689
:103570005B061D0BEC1BDC0F51A69337E6BB5233E9
:103580003F9D113E8880D03A8DD097243ACD562069
:10359000E3EB152D54F6D4297926A9C5CE3B68C195
:1035A000171D2BCCA000EAC8A550ADD6124D6CD289
:1035B000CB6B2FDF7C76EEDBC1CBA1E376D660E769
:1035C000AFF023EA18EDE2EE1DBDA5F0AAA064F469
:1035D000738627F9C49BE6FD09FDB889BEE0798DA5
:1035E00067C63A80D0DBFB84D58BBC9A62967D9E01
:1035F000BBB03E930CADFF97B110B0AF060D71ABF1
:10360000DF2B32A66836F3A26D66B4BCDA7B75B8E0
:10361000035D36B5B440F7B10000000000000000C3
:10362000000000000000000000000000000000009A
:10363000000000000000000000000000000000008A
:10364000000000000000000000000000000000007A
:10365000000000000000000050554B420000000038
:10366000000000000000000000000000000000005A
:1036700000000000982F8A4291443771CFFBC0B5FB
:10368000A5DBB5E95BC25639F111F159A4823F922D
:10369000D55E1CAB98AA07D8015B8312BE85312486
:1036A000C37D0C55745DBE72FEB1DE80A706DC9B47
:1036B00074F19BC1C1699BE48647BEEFC69DC10FF3
:1036C000CCA10C246F2CE92DAA84744ADCA9B05C2F
:1036D000DA88F97652513E986DC631A8C82703B0F2
:1036E000C77F59BFF30BE0C64791A7D55163CA0600
:1036F00067292914850AB72738211B2EFC6D2C4D0C
:10370000130D385354730A65BB0A6A762EC9C281F9
:10371000852C7292A1E8BFA24B661AA8708B4BC28F
:10372000A3516CC719E892D1240699D685350EF4B9
:1037300070A06A1016C1A419086C371E4C77482770
:10374000B5BCB034B30C1C394AAAD84E4FCA9C5BE6
:10375000F36F2E68EE828F746F63A5781478C88437
:103760000802C78CFAFFBE90EB6C50A4F7A3F9BE19
:10377000F27871C690370008051C400098370008A1
:1037800006204000060000000500000000000000C8
:10379000534841323234000053484132353600003C
:1037A000C03700080000002010000000F0060008EC
:1037B000D037000810000020602900000007000832
:1037C00000000000BF010008000000000000000031
:0400000508000131BD
:00000001FF
